:0400000080312B28F8
:100008007E14803140017F08F9004E0116180C1C3F
:1000180011288131DB2180312628961A8C1E182858
:100028008131D621803126280B1F2628991B8F1F46
:10003800212881311B2180312628191B0F1F2628D2
:100048008031E32079084001FF007E1009008031EB
:100058002D28FA01FB01FC01FD012030840000304D
:10006800850019308131C4218031A03084000030EE
:10007800850040308131C4217E10400181318829BA
:10008800F501F6017008710403197328F701F70ADE
:10009800F11B58280130F035F10D890B4F2801303C
:1000A800F4007408F7074C280130F535F60D890B74
:1000B800592871087302031D632870087202031C13
:1000C8006A287008F2027108F33B75140130F136A2
:1000D800F00C890B6B280130F702031D58287608AD
:1000E800F1007508F00008000430813136218031B4
:1000F80071084001B1007008B00030083207B20042
:100108003108333DB3000130F8007808B4070630F1
:100118003402031C08000630F0000030F1003308F8
:10012800F3003208F2008031442071084001B60023
:100138007008B500B201B301B4010800400198018C
:1001480099019A011F309200E0309300CA30940060
:100158007E01CE01C3011330B800C401B901CF013B
:10016800BA01C501D0011130A0007D014D08C03988
:100178001138CD001008C0390D3890000800D92872
:10018800B801B80A080000303602133003193502E6
:10019800031CD728003036023A30031935020318F9
:1001A800D7289A1608009A12080040013808003A21
:1001B8000319C428013A0319C728E2280800103097
:1001C80040013D020318FD287C08203E8600870177
:1001D800010854019A000130F0007008FC07103043
:1001E8007C020318FC010130F00070084001BD07D3
:1001F80008004E01191308004E019913191308300D
:1002080054019F0090309D0024309E0040309B0098
:1002180003309C00FD01FC0110304001BE003E0887
:10022800BD00FB01FA01B7014E01991708005401FE
:100238009D1C20291D121D161908F0007B08A03EE0
:1002480086008701700881000130F0007008FB0704
:1002580040307B020318FB010130F00070084001B8
:10026800B7070800F3007308F200F20DF20D410120
:100278001D087206033972069D001D140D30890B86
:100288004329000041019D149D1848291C08F100CC
:100298001B08F00008008131B42181318031A2208F
:1002A80081318131932181318131BC218131813189
:1002B8007B21813181316721813181310021813177
:1002C8008131E021080042304B019F00F9309D0048
:1002D8009C014E018C129616E4304001BE0001309C
:1002E800BF008131CA2187304B019E0008004E01B2
:1002F8000C100B1478304001BE000030BF00813173
:10030800D0214E011614080081314F2181318B17FD
:100318000B17400198168031C32081318F29603036
:1003280051018D008F01910106309300900120301A
:1003380092000800400139083A04031908003A08F5
:100348008A0039080A008131080040013B083C0452
:10035800031908003C088A003B080A00813108009C
:100368004F0196019701980199019A019B01080094
:10037800113041019D00A0309E009B019C010800A6
:10038800640080010131890BC529003440013F0810
:10039800BA003E08B900080040013F08BC003E080A
:1003A800BB0008004E018C1281319E2108004E01CD
:1003B8000C108131A9210800400119161A150800EE
:0203C80008002B
:020000040001F9
:0A000E00EC3F3F3F9F3FFF1FFF3F05
:00000001FF
