:0400000080312B28F8
:100008007E14803140017F08F9004E0116180C1C3F
:10001800112883317E2380312628961A8C1E1828B1
:1000280083317923803126280B1F2628991B8F1F9F
:1000380021288231932280312628191B0F1F262858
:1000480082315B2279084001FF007E10090080316F
:100058002D28FA01FB01FC01FD012030840000304D
:1000680085003930833161238031A030840000302D
:1000780085005030833161237E1040018231F32A9C
:100088004001DD005D08063E8600870101187028E2
:100098005D08023E860087012908C03F2A08C13F43
:1000A8005D08860087015D08023E84008501403FA7
:1000B8000007D9000131413F003DDA005D08043EE8
:1000C800860087015908C03F5A08C13F5D08063EAF
:1000D800860087010114E5285D08043E8600870133
:1000E800403FD900413FDA002A085A02031D7E2802
:1000F800290859020318A8285D08023E86008701CE
:10010800403FD900413FDA005A082A02031D8E28D1
:10011800590829020318A8285D08023E86008701AD
:10012800403FD900413FDA005D08043E8600870160
:10013800403FDB00413FDC005A085C02031DA62853
:1001480059085B02031CE0285D08043E860087010D
:10015800403FD900413FDA002A085A02031DB62859
:1001680029085902031CC8285D08023E8600870139
:10017800403FD900413FDA005A082A02031DC62829
:10018800590829020318E5285D08043E86008701FE
:10019800403FD900413FDA005D08023E86008701F2
:1001A800403FDB00413FDC005A085C02031DDE28AB
:1001B80059085B020318E5285D08063E860087019A
:1001C80001105D08063E8600870101080139080014
:1001D800B8304001D9000B30DA00523083310423A3
:1001E800803188304001D9001330DA004B30833138
:1001F800042380310A304001D9000030DA0044304D
:100208008331042380310A304001D9000030DA00FC
:100218003D308331042380310A304001D900003059
:10022800DA00363083310423803130304001D90080
:100238007530DA002F30833104230800F501F60108
:100248007008710403195129F701F70AF11B3629BF
:100258000130F035F10D890B2D290130F4007408B7
:10026800F7072A290130F535F60D890B372971086A
:100278007302031D412970087202031C4829700883
:10028800F2027108F33B75140130F136F00C890B5A
:1002980049290130F702031D36297608F10075084F
:1002A800F000080040010E1F6029443080314420CE
:1002B8008131003A0319642944308331592381314B
:1002C80040018E1F6E293D30803144208131003A33
:1002D800031972293D3083315923813140010D1FA3
:1002E8007C293630803144208131003A03190800D6
:1002F800363083315923080004308231AE228131EF
:1003080071084001A1007008A00020082207A2007F
:100318002108233DA3000130F8007808A40706301F
:100328002402031C08000630F0000030F100230806
:10033800F3002208F2008131222171084001A60051
:100348007008A500A201A301A4010800C6298331F1
:1003580041234001AD01AD0A080028082A02031D07
:10036800B72927082902031CBD290230DB005B08D6
:10037800AD002908643EA70000302A3DA800080007
:100388000100080040012D08003A0319AB29013A81
:100398000319B129033A0319C429D22908004001D5
:1003A8000E1B8E1FF3290D1BE62952308031442085
:1003B8008131003A031DE62904304001DE005E0861
:1003C800AC0008004B30803144208131003A031DD5
:1003D800080005304001DE005E08AC00080052301D
:1003E8008331592381314B3083315923080040012F
:1003F800980199019A011F309200E0309300CA30A9
:1004080094007E01CE01C3011330B800C401B901C4
:10041800CF01BA01C501D0011130A0007D014D08FE
:10042800C0391138CD001008C0390D3890000800C7
:10043800322AAE01AE0A0800003026021330031932
:100448002502031C302A003026023A3003192502FF
:100458000318302A9A1608009A12080040012E083C
:10046800003A03191D2A013A0319202A3B2A0800D9
:100478004B2A8031EC2003304001DF005F08AC00DC
:1004880008008131D321080081315621080040013C
:100498002C08003A03193D2A033A0319452A073A5A
:1004A8000319482A013A03195A2A5A2A080010300F
:1004B800400164020318752A7C08E03E8600870123
:1004C800010854019A000130F0007008FC07103050
:1004D8007C020318FC010130F00070084001E407B9
:1004E80008004E01191308004E019913191308301A
:1004F80054019F0090309D0024309E0040309B00A6
:1005080003309C00FD01FC0110304001D90059085E
:10051800E400FB01FA01AB014E01991708005401F0
:100528009D1C982A1D121D161908F0007B08A03E74
:1005380086008701700881000130F0007008FB0711
:1005480040307B020318FB010130F00070084001C5
:10055800AB070800F3007308F200F20DF20D410139
:100568001D087206033972069D001D140D30890B93
:10057800BB2A000041019D149D18C02A1C08F100E7
:100588001B08F00008008331492382318131FB21A7
:100598008231833120238231833151238231833167
:1005A800132382318231DF228231823178228231F3
:1005B80083318323080042304B019F00F9309D00AE
:1005C8009C014E018C12961687304001D9000330E9
:1005D800DA008331672387304B019E00080082319F
:1005E800C72282318B170B174001981682311C22C3
:1005F80082318131AA21823182313C228231FA2A28
:100608004001DB005B08860087015908C03F5A0893
:10061800C13F5B08063E86008701011008004E01B5
:100628000C100B1480304001D9000130DA008331FE
:100638006D234E0116140800603051018D008F01A2
:10064800910106309300900120309200080040018B
:10065800600861040319080061088A0060080A003C
:100668008331080040016208630403190800630825
:100678008A0062080A008331080073304001D900FB
:100688000330DA008331672308004F019601970190
:10069800980199019A019B010800113041019D00C0
:1006A800A0309E009B019C0108004001D900590818
:1006B800063E8600870101100800640080010131B0
:1006C800890B622B003440015A08E1005908E00008
:1006D800080040015A08E3005908E2000800013008
:1006E8004001A9070030AA3D08004E018C12833151
:1006F8002B2308004E010C108331362308004001DB
:0807080019161A15080008007B
:020000040001F9
:0A000E00EC3F3F3F9F3FFF1FFF3F05
:00000001FF
