:0400000080312B28F8
:100008007E14803140017F08F9004E0116180C1C3F
:1000180011288231292280312628961A8C1E182808
:1000280082312422803126280B1F2628991B8F1FF6
:1000380021288131442180312628191B0F1F2628A9
:1000480081310C2179084001FF007E1009008031C0
:100058002D28FA01FB01FC01FD012030840000304D
:1000680085001F3082310C228031A030840000309E
:100078008500403082310C227E1040018131A42954
:10008800F501F6017008710403197328F701F70ADE
:10009800F11B58280130F035F10D890B4F2801303C
:1000A800F4007408F7074C280130F535F60D890B74
:1000B800592871087302031D632870087202031C13
:1000C8006A287008F2027108F33B75140130F136A2
:1000D800F00C890B6B280130F702031D58287608AD
:1000E800F1007508F0000800043081315F2180318B
:1000F80071084001B1007008B00030083207B20042
:100108003108333DB3000130F8007808B4070630F1
:100118003402031C08000630F0000030F1003308F8
:10012800F3003208F2008031442071084001B60023
:100138007008B500B201B301B4010800BE288131CE
:10014800F4214001BD01BD0A080038083A02031D28
:10015800AF2837083902031CB5280230C600460804
:10016800BD003908643EB70000303A3DB8000800C9
:100178000100080040013D08003A0319A328013A8C
:100188000319A928033A0319BC28CA280800400102
:10019800980199019A011F309200E0309300CA300B
:1001A80094007E01CE01C3011330B800C401B90127
:1001B800CF01BA01C501D0011130A0007D014D0861
:1001C800C0391138CD001008C0390D38900008002A
:1001D8000229BE01BE0A0800003036021330031996
:1001E8003502031C0029003036023A300319350263
:1001F800031800299A1608009A12080040013E08C0
:10020800003A0319ED28013A0319F0280B290800D0
:10021800103040014302031826297C08203E86003E
:100228008701010854019A000130F0007008FC07AA
:1002380010307C020318FC010130F0007008400106
:10024800C30708004E01191308004E01991319132A
:10025800083054019F0090309D0024309E004030AB
:100268009B0003309C00FD01FC0110304001C400DC
:100278004408C300FB01FA01BB014E0199170800AD
:1002880054019D1C49291D121D161908F0007B08F0
:10029800A03E86008701700881000130F0007008D8
:1002A800FB0740307B020318FB010130F0007008A7
:1002B8004001BB070800F3007308F200F20DF20DCD
:1002C80041011D087206033972069D001D140D3088
:1002D800890B6C29000041019D149D1871291C0887
:1002E800F1001B08F00008008131FC2181318031C8
:1002F800CB2081318131D321813182310422813176
:100308008131C62181318131902181318131292189
:10031800813182312E22080042304B019F00F93092
:100328009D009C014E018C12961633304001C4008A
:100338000230C5008231122287304B019E0008002E
:100348008131782181318B170B1740019816803144
:10035800EC2081318031A22081318131B521813178
:10036800AB29BC29823132224001BC01BC0A0800F9
:1003780040013C08003A0319B629013A0319C52976
:10038800C52908004E010C100B1478304001C40038
:100398000030C500823118224E0116140800603062
:1003A80051018D008F01910106309300900120309A
:1003B8009200080040013F08400403190800400863
:1003C8008A003F080A0081310800400141084204C0
:1003D8000319080042088A0041080A008131080010
:1003E8001E304001C4000230C500823112220800CC
:1003F8004F0196019701980199019A019B01080004
:10040800113041019D00A0309E009B019C01080015
:10041800640080010131890B0D2A00344001450830
:10042800C0004408BF00080040014508C200440855
:10043800C100080001304001B9070030BA3D08008A
:100448004E018C128131DE2108004E010C108131E1
:10045800E9210800400119161A15080008000800CB
:020000040001F9
:0A000E00EC3F3F3F9F3FFF1FFF3F05
:00000001FF
